:100A39004C696E655F636F756E7465723A002D2D32
:080A49002D636D0000000000A8
:08096F00C103C1044100250091
:1005520078027C007D017BFF7A0A79477E007F0A60
:100562001202F112090512066C1204EDD2AFC2A7F3
:10057200C2C5120ABE120ADD7F011209ED7F021204
:1005820009ED7FC8120A817BFF7A0A79397D017FE2
:100592000112074F900014E0FB7D077F011209D280
:1005A2007B017A0079027D017F0212074F7F781268
:0405B2000A5180F971
:10066C00C2DEE5A254CF4420F5A2E4F5D875F20120
:10067C0075F30175F40175DA4275DB4275DC42F5F0
:10068C00F9F5E975D902900000F0900000F09000A7
:10069C0000F0900000E0FD7C00E4FF12093D9000AA
:1006AC0000E0FD7C007F0112093DD2DE53951F4313
:0306BC0096E022A3
:100A81007DA57C06ED1D70011C144C70F7EF1F70E5
:060A9100011E144E70EA84
:010A9700223C
:10093D00EF700DC2DEC374FF9DF5EAF5FAD2DE222B
:10094D00EFB4010DC2DEC374FF9DF5EBF5FBD2DEF6
:10095D0022EFB4020CC2DEC374FF9DF5ECF5FCD2A0
:02096D00DE2288
:0F0ACE00E4FF120A69E4FF120AECE4FF020A5186
:100A510090000DEFF06005E4FF120A6990000DE0CF
:080A6100FD7C007F0202093D4B
:100A690090000CEFF06005E4FF120A5190000CE0D1
:080A7900FD7C007F0102093D34
:090AEC00EFFD7C00E4FF02093D6E
:03000B0002099354
:10099300C0E0C083C082C0D0900015E004F0E0C383
:1009A30094284004E4F0D200D0D0D082D083D0E0A9
:0109B3003211
:03001B000206BF1B
:1006BF00C0E0C0F0C083C082C0D075D000C000C001
:1006CF0001C002C003C004C005C006C007900016D9
:1006DF00E004F0E0B4050C7F78120A697F78120A03
:1006EF00ECC28ED007D006D005D004D003D002D0F4
:0E06FF0001D000D0D0D082D083D0F0D0E03235
:0300630002000692
:0100060032C7
:1004ED00E490000CF0A3F0A304F0E4A3F0A3F0A3B8
:1004FD007490F0A3E4F0A304F0FB7A00790CE4FF10
:10050D00120086E490000CF0A3F0A304F0E4A3F035
:10051D00A304F0A37490F0A3E4F0A3F07B017A00A0
:10052D00790C7F0112008690000E7401F0A3F0A3E8
:10053D00F0A37470F0A3E4F0A3F07B017A00790CC2
:05054D007F02020086A0
:10008600AD07EDD3940240037F0122ED6003020128
:100096001AC28C900002120330B40104D2A9800265
:1000A600C2A9900001120330B40104D2B98002C281
:1000B600B9120317FED3940340037F0222E5895445
:1000C600FC4EF589900003120330FFB40103538EF2
:1000D6007FEF7003438E80EFB402054389048003EB
:1000E6005389FB900004120330B40105438F01804D
:1000F60003538FFE900005120373E5F0F58C900014
:1001060005120373F58A900007120330B40102D278
:100116008C7F0022ED640160030201A5C28E90006F
:1001260002120330B40104D2AB8002C2AB900001CC
:10013600120330B40104D2BB8002C2BB120317FE05
:10014600C3940340037F0222E58954CF4EF589907C
:100156000003120330FFB40103538EBFEF70034355
:100166008E40EFB4020543894080035389BF900057
:1001760004120330B40105438F028003538FFD90B0
:100186000005120373E5F0F58D900005120373F573
:100196008B900007120330B40102D28E7F0022ED4D
:1001A60064027074538EEF900002120330B401059E
:1001B60043AF04800353AFFB900003120330FED31A
:1001C600940240037F0222EEB40103538EFB90009B
:1001D600031203307003438E04900003120330B4FD
:1001E6000205438E088003538EF7900004120330F5
:1001F600B40105438F048003538FFB90000512035F
:1002060073FDACF0ECF5D68DD7900007120330B431
:0B0216000103438E107F00227F0222B4
:0300030002070DE4
:10070D00C0E0C083C082C0D075D000C004C005C099
:01071D0007D4
:10071E007D007C90900014E004F0E0B4010720010D
:10072E0004D2028002C202C28CECF58CAF058F8A15
:02073E00D28C5B
:0F074000D007D005D004D0D0D082D083D0E03203
:03001300020007E1
:0100070032C6
:03005300020008A0
:0100080032C5
:03005B0002000997
:0100090032C4
:0300830002000A6E
:01000A0032C3
:1003AB00EFD3940440037F0122EF702D90000212D3
:1003BB000330B40104D2A88002C2A890000112033A
:1003CB0030B40104D2B88002C2B8120317B40104CE
:1003DB00D2888002C2887F0022EF6401702D9000CA
:1003EB0002120330B40104D2AA8002C2AA90000107
:1003FB00120330B40104D2BA8002C2BA120317B48A
:10040B000104D28A8002C28A7F0022EFB4021490C8
:10041B000002120330B40105438F108003538FEF9A
:10042B007F0022EFB40314900002120330B40105D5
:10043B00438F208003538FDF7F0022EFB40414908F
:10044B000002120330B40105438F408003538FBF6A
:06045B007F00227F022257
:100A98009000207401F0A3F0A3F0FB7A007920E421
:040AA800FF0203AB9B
:100AAC00E4FFFE30970B0FBF00010EBE13F5BF889D
:010ABC00F247
:010ABD002216
:10001E00C2B58F900000000000000000000000003C
:10002E000000000000000000D2B60000000000003A
:10003E000000000000000000000000000000C2B63A
:04004E007590FF2288
:10061200AD07C2B4D2B57590FF0000000000000023
:1006220000000000000000000000000000D2B6122E
:100632000AACC2B6C2B5AF058F9000000000000040
:100642000000000000000000000000000000D2B620
:100652000000000000000000000000000000000098
:0A06620000000000C2B67590FF22F0
:1005B600AD07C2B4D2B57590FF0000000000000080
:1005C60000000000000000000000000000D2B6128B
:1005D6000AACC2B6C2B5D2B4AF058F900000000017
:1005E6000000000000000000000000000000000005
:1005F600D2B600000000000000000000000000006D
:0C060600000000000000C2B67590FF224A
:10090500C2B6C2B4C2B57F64120A817F3012001E1E
:100915007F0A120A817F3012001E7F0A120A817F28
:100925003812001E7F06120A817F011206127F0609
:080935001206127F0C020612EB
:1009B400AC05AB07EBB40108EC144480FF1206123B
:0E09C400EBB40209EC243F4480FF120612221D
:1009ED00EF6016D3940250117D011209B4E4FC7F1F
:0909FD00201205B60CECB410F652
:010A060022CD
:1009D200AA03EF6015D394025010ED600DD394106A
:0B09E20050081209B4AF021205B62243
:10074F0090000CEFF0A3EDF0A3EBF0A3EAF0A3E918
:10075F00F090000EE0FBA3E0FAA3E0F9120317FB01
:10076F00601F90000CE0FFA3E0FD1209D2E004F03F
:10077F00D39414500C90000FE475F00112035D80B8
:02078F00D02276
:1000660030000BC200E4900014F0C202C28C900073
:0D00760014E0C394034005D2011208C92212
:1008C900900017E0146020047031E58020E0FB7F80
:1008D90078120A517FF4120A817F78120A69120A82
:1008E900CE3096FD020ADDE58030E0077F78120AF6
:0C08F9005180F4120ADD7F90120A812267
:10097700410015004100140041001600C100C102EA
:06098700C1014100170050
:100ABE003096079000177401F022E4900017F02290
:05098D00420023900070
:1007910012006630021DE4FF120A697F78120AEC2A
:1007A100C28E900023E0FCA3E0FDECF58D8D8BD291
:1007B1008EC202E580540314600C14600C146004B2
:1007C1002403700B80060207D102080F120ADD22F2
:0F0ADD00E4FF120A517F8C120A697F78020AEC3B
:100A0700E4FF120A697F78120AEC7FD0120A817F0D
:090A170078120A697F78020AECEA
:100A20007F78120A69E4FF120AEC7FD0120A817FF4
:090A300078120A697F78020AECD1
:1007D100E5805403900026F0E4FF120A697F781245
:1007E1000AEC7FDC120A81900026E06007E5805464
:1007F10003F080F37F78120A69E4FF120AEC7FC8E4
:0D080100120A817F78120A697F78120AECD2
:01080E0022C7
:10080F00E5805403900027F07F78120A69E4FF1205
:10081F000AEC7FC8120A81900027E06007E5805438
:10082F0003F080F3E4FF120A697F78120AEC7F96D7
:0D083F00120A817F78120A697F78120AEC94
:01084C002289
:10084D00900018EEF0A3EFF0A3ECF0A3EDF0E4FFB1
:10085D00120A697F78120AEC900018A3E0FF120AC1
:10086D00817F78120A69E4FF120AEC90001AA3E066
:0E087D00FF120A817F78120A697F78020AEC66
:10088B0090001CEEF0A3EFF0A3ECF0A3EDF07F785B
:10089B00120A69E4FF120AEC90001CA3E0FF120A93
:1008AB0081E4FF120A697F78120AEC90001EA3E024
:0E08BB00FF120A817F78120A697F78020AEC28
:0300000002046196
:0C046100787FE4F6D8FD7581200204A825
:10022100E709F608DFFA8046E709F208DFFA803EBF
:1002310088828C83E709F0A3DFFA8032E309F608AC
:10024100DFFA8078E309F208DFFA807088828C8314
:10025100E309F0A3DFFA806489828A83E0A3F608C8
:10026100DFFA805889828A83E0A3F208DFFA804CA2
:1002710080D280FA80C680D4806980F28033801079
:1002810080A680EA809A80A880DA80E280CA8033E2
:1002910089828A83ECFAE493A3C8C582C8CCC5835A
:1002A100CCF0A3C8C582C8CCC583CCDFE9DEE7802A
:1002B1000D89828A83E493A3F608DFF9ECFAA9F0A9
:1002C100EDFB2289828A83ECFAE0A3C8C582C8CCFF
:1002D100C583CCF0A3C8C582C8CCC583CCDFEADE18
:1002E100E880DB89828A83E493A3F208DFF980CC7A
:1002F10088F0EF60010E4E60C388F0ED2402B40473
:100301000050B9F582EB2402B4040050AF23234519
:06031100822390027173CB
:10031700BB010689828A83E0225002E722BBFE02E4
:09032700E32289828A83E4932217
:10033000BB010CE58229F582E5833AF583E0225082
:1003400006E92582F8E622BBFE06E92582F8E222CC
:0D035000E58229F582E5833AF583E49322E6
:10035D00C5F0F8A3E028F0C5F0F8E582158270022B
:06036D001583E038F022C8
:10037300BB0110E58229F582E5833AF583E0F5F0C8
:10038300A3E0225009E92582F886F008E622BBFEA5
:100393000AE92582F8E2F5F008E222E5832AF583EB
:0803A300E993F5F0A3E99322B0
:10046D00020552E493A3F8E493A34003F68001F24E
:10047D0008DFF48029E493A3F85407240CC8C33390
:10048D00C4540F4420C8834004F456800146F6DF5F
:10049D00E4800B010204081020408090096FE47E77
:1004AD00019360BCA3FF543F30E509541FFEE49354
:1004BD00A360010ECF54C025E060A840B8E493A31B
:1004CD00FAE493A3F8E493A3C8C582C8CAC583CA46
:1004DD00F0A3C8C582C8CAC583CADFE9DEE780BEFE
:010992000064
:00000001FF
